:020000040002F8
:1060000088600020C5630200CD630200CF630200F8
:10601000D1630200D3630200D563020000000000D8
:10602000000000000000000000000000D763020034
:10603000D963020000000000DB630200DD630200A0
:1060400035660200DF630200D9690200DF630200E7
:10605000DF630200DF63020091650200DF6302007C
:10606000DF630200DF630200DF630200DF63020020
:10607000DF630200DF630200DF630200DF63020010
:10608000DF6302008D660200DF630200DF6302004F
:10609000DF630200DF630200FD660200DF630200CF
:1060A000DF630200DF630200DF630200DF630200E0
:1060B000DF630200DF630200000000000000000058
:1060C000DF630200DF630200DF630200DF630200C0
:1060D000DF630200DF630200DF63020000000000F4
:1060E00000000000000000000000000000000000B0
:1060F00000000000000000000000000000000000A0
:10610000000000000000000000000000000000008F
:10611000000000000000000000000000000000007F
:10612000000000000000000000000000000000006F
:10613000000000000000000000000000000000005F
:10614000000000000000000000000000000000004F
:10615000000000000000000000000000000000003F
:10616000000000000000000000000000000000002F
:10617000000000000000000000000000000000001F
:10618000000000000000000000000000000000000F
:1061900000000000000000000000000000000000FF
:1061A00000000000000000000000000000000000EF
:1061B00000000000000000000000000000000000DF
:1061C00000000000000000000000000000000000CF
:1061D00000000000000000000000000000000000BF
:1061E00000000000000000000000000000000000AF
:1061F000000000000000000000000000000000009F
:10620000DFF810D000F086F900480047E98D020061
:10621000AFF300808860002030B450E8012F93B2C3
:10622000C48923448489A34228BF1B1B0489A34239
:1062300002BFBFF32F8F002007E0C3EA020340E84C
:106240000134002CE9D14FF001000A6030BC7047E6
:1062500050E8012FC2EA024240E801210029F7D1AB
:10626000704730B450E8022F1FFAA2F3C488A3424B
:1062700002BFBFF32F8F00200DE0C489234484891F
:10628000A34228BF1B1BC2EA034340E80234002C90
:10629000E8D14FF001000A6030BC704750E8022F8F
:1062A000C2EA224240E802210029F7D170470346A2
:1062B00053E8022FD988B2EB324F4FF0000017BFDE
:1062C00092B241EA014142EA014104E05A68B2EB6C
:1062D000324F08BF012043E80212002AE8D170477C
:1062E00030B4044654E8000F0D4644E80053002B38
:1062F000F8D1156030BC704730B4044654E8000F44
:1063000040EA010544E80053002BF7D1156030BC8A
:10631000704730B4044654E8000F00EA010544E831
:106320000053002BF7D1156030BC704730B40446E1
:1063300054E8000F80EA010544E80053002BF7D130
:10634000156030BC704730B4044654E8000F00EBD1
:10635000010544E80053002BF7D1156030BC7047AD
:1063600030B4044654E8000FA0EB010544E80053A4
:10637000002BF7D1156030BC704770B404464FF065
:10638000000054E8006F0D68AE4207BF44E80023E8
:10639000012044E800630E60002B1CBF0020F0E7E2
:1063A00070BC704730B4044654E8000F88422CBFDC
:1063B000451A054644E80053002BF5D1156030BC62
:1063C000704700000648804706480047FEE7FEE7A2
:1063D000FEE7FEE7FEE7FEE7FEE7FEE7FEE7FEE795
:1063E00001670200016202002DE9F05F054600200E
:1063F00092469B4688460646814640241BE0284636
:1064000041464746224600F074F853465A46C01AA1
:10641000914110D311461846224600F016F82D1A65
:1064200067EB01084F4622460120002100F00DF8DD
:1064300017EB00094E41201EA4F10104DFDC4846A1
:1064400031462A464346BDE8F09F202A04DB203A25
:1064500000FA02F1002070479140C2F1200320FAB7
:1064600003F3194390407047004870479CD60200E0
:1064700040EA01039B0703D009E008C9121F08C0C6
:10648000042AFAD203E011F8013B00F8013B521E46
:10649000F9D27047D2B201E000F8012B491EFBD2BD
:1064A00070470022F6E710B513460A46044619461F
:1064B000FFF7F0FF204610BD421C10F8011B002919
:1064C000FBD1801A704730B504460020034600E037
:1064D0005B1C934203D2E05CCD5C401BF8D030BD26
:1064E000034611F8012B00F8012B002AF9D11846B8
:1064F0007047202A04DB203A21FA02F0002170477D
:1065000021FA02F3D040C2F120029140084319461B
:1065100070470000064C074D06E0E06840F00103BC
:1065200094E8070098471034AC42F6D3FFF76CFEAE
:1065300080E10200A0E1020070B58C1810F8015B48
:1065400015F0070301D110F8013B2A1106D110F80C
:10655000012B03E010F8016B01F8016B5B1EF9D110
:106560002B0705D40023521E0DD401F8013BFAE796
:1065700010F8013BCB1A921C03E013F8015B01F801
:10658000015B521EF9D5A142D8D3002070BD000096
:106590002DE9F8430025DFF894804FF4807601243C
:1065A0002F460095304603F023FC38B1D8F8040399
:1065B000204203D0304603F011FC2543361D640011
:1065C0007F1CB6B2082FEDD34FF4BE74204603F003
:1065D0000FFC48B1204603F001FC45F000456A4637
:1065E0000121002003F0CAFB15F0FF0F16D0012691
:1065F00000242E420ED008EB8401D1F81005D1F80A
:106600001015C0F304200A4AC1F3014152F82420B6
:1066100002B190477600641C082CEAD3002D02DA00
:10662000684605F0BDFBBDE8F8830000006000404F
:10663000E836002070B54FF48076304603F07AF9E2
:10664000114CB50560B1304603F07BF90120C5F867
:106650000803607920B90120607121680020884713
:106660004FF48276304603F065F900280AD03046B0
:1066700003F067F90220C5F808032168BDE87040FF
:106680000120084770BD0000BC30002002490248CC
:10669000091F0968006808474C31002000F0A2B9C2
:1066A00070B50E46144900EB400001EBC0051446DE
:1066B000E86A183520B101280FD0022805D113E06F
:1066C000284600F0C3F9A04201D2002411E022467E
:1066D0003146284600F0F2F90BE0284600F0B6F902
:1066E000A042F4D20446F2E73146284600F0B9F958
:1066F0000446204670BD0000FC3D002004F00EBAA8
:10670000F0B5A449A4484FF080540B68D4F8302168
:106710000078D4F83411551CC0F3031006D0944609
:1067200001270026BCF1060F03D00AE003F0FF0C9E
:10673000F6E7B4F82453DFF864C2C5F30425CCF8B7
:106740000050DDB2062D06D1032804D1DFF854C273
:10675000934DCCF87450551C04D09446BCF1060FF0
:1067600003D00AE003F0FF0CF8E7D4F84452DFF856
:1067700038C2C5F34235CCF80050DDB2062D08D141
:10678000032806D1894DD5F800C02CF0807CC5F8CF
:1067900000C0551C04D09446BCF1060F03D00BE09A
:1067A00003F0FF0CF8E74FF08045C5F80C61C5F821
:1067B00010617D4D2D1F2E60DDB2062D08D10328FE
:1067C00006D1DFF8E4C103250CF1640CCCF80050CD
:1067D000DDB2062D10D103280ED1DFF8D4C1052576
:1067E000CCF80050724D78352F60714D08352E6011
:1067F0000CF104063F253560551C04D016460D46A5
:10680000062E03D05BE0DEB20546F9E7ED1E012D52
:1068100055D9684D2D68684E3560664D2D1D2D6823
:10682000361D3560634D08352D68361D3560614D68
:106830000C352D68361D35605E4D10352D68361DC2
:1068400035605C4D14352D68361D3560594D183551
:106850002D68594E20363560564D1C352D68361D35
:106860003560544D20352D68361D3560514D243529
:106870002D68361D35604F4D28352D68361D356025
:106880004C4D2C352D68361D35604A4D30352D6800
:10689000494E40363560474D34352D68361D3560DC
:1068A000444D38352D68361D3560424D3C352D68D8
:1068B000361D35603F4D40352D68361D3560551C01
:1068C00003D01646062E02D007E0DEB2FAE7D4F86F
:1068D00058523A4E05F04F053560551C03D013460B
:1068E000062B02D008E0DBB2FAE735480368DB0785
:1068F00002D06FF001030360062A07D1C91E0229E6
:1069000004D93048016841F4806101602748743837
:10691000016841F470010160BFF34F8FBFF36F8FC7
:10692000D4E94C104FF01022062907D1C01E0328CD
:1069300004D9D2F808021C491C310860D2F80002C0
:10694000002803DBD2F8040200281FDA012004F03B
:1069500099FD1521C2F800121B480368002BFCD0DA
:10696000C2F8041201680029FCD0002004F08AFD5E
:10697000BFF34F8F0D48F0380168144A01F4E0610D
:1069800011430160BFF34F8F00BFFDE7114910486D
:106990000860F0BDE00F00F0E80F00F04035014066
:1069A0000DF0ADBA00C007403C050040FCED00E032
:1069B000105600400404001020C50040E40E0040C2
:1069C000000400403C17004000E401400400FA05C8
:1069D0000090D003C4310020014800680047000047
:1069E000C430002010B5124C02202061606111A05B
:1069F000A06104F17800E0614FF400702062002093
:106A0000A06260620BA1A164E06204F51E71E16402
:106A10001021A065C4E91410E06509A1E01DFFF78D
:106A20005FFD08A12046FFF75BFD2020A07110BD8F
:106A3000FC3D00205465726D696E616C00000000C1
:106A40005254540053454747455200000269C168FB
:106A50008A4203D88068401A104400E0501A401E51
:106A600070472DE9F047C4681746894606464FF03F
:106A700000083069A04201D9051B02E0B168201A64
:106A80000D1AB0686D1E001BA84200D80546BD4215
:106A900000D33D4670682A4620444946FFF7E8FC8B
:106AA000B0687F1B2C44A844A944A04200D1002414
:106AB000F460002FDDD14046BDE8F0872DE9F041BC
:106AC00004468846D4E90207C51BE168606816469B
:106AD0000844B54206D94146FFF7CAFCB819E06040
:106AE000BDE8F0812A464146FFF7C2FC761B08EB61
:106AF000050132466068FFF7BBFCE660F0E7000086
:106B0000014A024900F026B87B8802005C3100206F
:106B100002E008C8121F08C1002AFAD17047704766
:106B2000002001E001C1121F002AFBD170470000C4
:106B30000121202803DA81400548014003E0402874
:106B400002DA2038814009B10120704700207047E7
:106B5000FC06FFBD2DE9F04116460F460446002510
:106B600003E03946B047641C6D1C20780028F8D13A
:106B70002846BDE8F08110B501220221002001F075
:106B80001FF808B1072810D107220221012001F0C7
:106B900017F808B1072808D100210A22084601F099
:106BA0000FF808B1072800D1002010BD022000F026
:106BB00023BF000070B50024064D06E0686801217F
:106BC00010F8340004F0C2F8641C28788442F5D32D
:106BD000002070BDD0300020F8B516460C460546A2
:106BE0000A2A01D20720F8BD04F0AAF918B904F066
:106BF0006DF90028F7D1134F102113487D603C70C8
:106C0000BE60FFF74EFC0020C7E904000F4E0DE008
:106C100005EBC4003168009181788DF8011000788F
:106C20000B4A694604F0E2F80028DCD1641EE4B2A5
:106C3000EED2BDE8F84005480021064A001D00F0EC
:106C400087B80000D03000209437002088D302009D
:106C5000E18A0200AD82020010B572B603F0B4FB07
:106C600003F094F90028FBD111481249401AC408D6
:106C7000012000EB044010A103F0F8FA114800686D
:106C8000C00700D000BE022000EB04400EA103F0BC
:106C9000EDFABFF34F8F0B48E43801680E4A01F458
:106CA000E06111430160BFF34F8F00BFFDE70000BB
:106CB00028E20200B0E10200466174616C20657256
:106CC000726F7200F0ED00E053797374656D20729D
:106CD00065736574000000000400FA050EB500211C
:106CE0000091CDE901106A4644F20100FFF7B4FFBC
:106CF0000EBD10B58268C368934203D001F0AAFDAF
:106D0000002010BD052010BD29B112B1531E134241
:106D100003D0092070470E20704701608380002156
:106D20008160C1600846704710B58268C3689A1ACE
:106D300083889A4203D801F097FD002010BD0420FB
:106D400010BD0000014801F002BC0000103100201D
:106D500010B55AB100684FF0FF3401294261C0E913
:106D6000024400D000210161002010BD072010BDA9
:106D700038B5114808235822416800910F4900682E
:106D800002F04AF9002815D10D4A69460D4801F074
:106D9000E3FB04000ED101210A4801F058FC012355
:106DA000094A1946074801F0AAFB0649012008399B
:106DB0000870204638BD000090D30200B437002090
:106DC0004DC5020010310020FFFF7F00F8B50446DA
:106DD000002617460D468DF80060684600F0D8F88A
:106DE000D4E90201C04370EA010005D09DF800001B
:106DF00000F0F2F80020F8BD01F058FE4019714192
:106E0000C4E902019DF8000000F0E6F8A7612069DE
:106E100000B125612146BDE8F840002005F00EBF15
:106E200038B5044600208DF80000684600F0B0F840
:106E3000D4E90201C04370EA01000DD04FF0FF30E9
:106E4000C4E902009DF8000000F0C6F82146BDE844
:106E50003840012005F0F2BE9DF8000000F0BCF8BB
:106E6000002038BD70B50A4E01460A48B578FFF7D4
:106E700040FF04464DB10020B070711C0122C81DB6
:106E800002F0D6FD08B1FFF729FF204670BD0000D3
:106E90002C3100200C380020F0B5244E89B01F465C
:106EA0000D00044672603FD0A888296882B220484D
:106EB000FFF72AFF002835D1A889A96882B21C48AB
:106EC0001030FFF721FF00282CD1202219496846F5
:106ED000FFF7CEFA60690690207C00B101208DF8A2
:106EE00014008DF81C70607C00B10E208DF8150028
:106EF000E0680290A06803902068019060680090AC
:106F00000A480D4A6946083002F05EFD002809D1A2
:106F1000B0702068401C05D004490122491CC81DDE
:106F200002F086FD09B0F0BD0720FBE72C31002000
:106F30000C380020A4D3020009CE020010B501468F
:106F40001048FFF7F1FE040019D10F480F4A0178ED
:106F5000515C19B1001D04F085FA02E00C3004F018
:106F60005BF960B9084907480839FFF7C2FE30B934
:106F7000054901220839044802F06AFD044620460A
:106F800010BD00001C38002034310020B03000203B
:106F900030B5EFF3108172B60D4A9468012324B125
:106FA0000370002900D162B630BD93604FF0E0233A
:106FB000D3F88051074C25401560C3F88041D3F8C1
:106FC000844154605A17C3F8842100220270E8E714
:106FD0002C380020FC06FFBD0B498A68002A11D01E
:106FE00000280FD1EFF3108072B60B684FF0E0224B
:106FF000C2F800314B68C2F8043100228A600028D0
:1070000000D162B6704700002C3800202DE9F04115
:10701000064608680C46411C4FF0A0474FF001059A
:1070200006D005FA00F1C7F80815206802F080FEC6
:107030006068411C02D0002102F068FE3168A0693E
:10704000C1F82405607D227D31681043C1F86C05CC
:10705000D4E900123068C0F81425C0F80C15207D62
:10706000012815D1A068411C02D0002102F04EFE7B
:10707000E068411C05D08540C7F80855E06802F07B
:1070800057FED4E902123068C0F80825C0F8101580
:10709000BDE8F0812DE9F041064608680C46411C28
:1070A0004FF0A0474FF0010506D005FA00F1C7F8F0
:1070B0000815206802F046FE6068411C02D00021DD
:1070C00002F02DFE3168A069C1F82405607D217DA4
:1070D00032680843C2F86C05D4E900123068C0F881
:1070E0000C15C0F81425207D012815D1A068411C7D
:1070F00002D0002102F013FEE068411C05D085405B
:10710000C7F80855E06802F01DFED4E902123068A5
:10711000C0F80825C0F81015BDE8F08170B5E0B1E1
:10712000DAB1002402E0045D2C44A4B2651C8D4257
:1071300006D21688A642F6D8061976789E42F2D173
:107140008C420AD2A31C005D9BB200B1401E000419
:10715000000C02D01C188C4201D9002070BD138095
:1071600070BD2DE9F0418AB006460020ADF814004C
:107170001346102088468DF804000D4606AA01A982
:10718000184664DFA6B398BB9DF80400022804D01B
:10719000042807D0102839D10DE003208DF8100005
:1071A000022003E005208DF8100004208DF8110066
:1071B000002404AF0FE007208DF810000620F5E74B
:1071C0003B5D05AA41463046FFF7A8FF641CE4B2C8
:1071D0000546022C04D2BDF814000028F0D003E0CC
:1071E000BDF81400002812D080B2064400240BE041
:1071F0000CE030199DF8042006A9FFF764F948B1A6
:107200009DF80400204484B2AC42F2D300200AB0BE
:10721000BDE8F0810120FAE770B540B10C4D297846
:1072200039B1044605F046F828B1002070BD0E20A3
:1072300070BD082070BDE868062807D2054922689D
:1072400001EB8001401C0A60E860EEE7042070BD9D
:10725000A0300020BC36002010B558B103684BB1F7
:1072600042683AB1044900200124C8600C70C1E9A9
:10727000013210BD0E2010BDA0300020002827D004
:10728000002925D0134A1278002A21D00A46018805
:10729000112911D0302907D0322909D0332917D12B
:1072A000011D104604F0EEBA011D104604F066BC44
:1072B000011D104604F0F2B88088B2F8CA12884264
:1072C00006D1002082F8C8024FF6FF70A2F8CA0269
:1072D00070470000A030002048B1084A137843B13D
:1072E000D26832B190F8C8222AB1112070470E201E
:1072F00070470820704701F097B80000A0300020C8
:1073000038B50446011D028839483A4BC01AC008F6
:10731000032303EB00401D2A26D00FDC102A25D0C2
:10732000112A3FD0132A45D01B2A59D109790229A5
:1073300056D131A1BDE8384002F098BF1F2A3FD096
:107340002C492B4B0420591AC90800EB0140212A73
:107350003AD03B2A45D0562A42D12FA102F086FFCF
:10736000A088132176DF17E031A1E3E70A8837A16F
:1073700002F080FFA18800223C4800F047F908B1E4
:10738000FFF7ACFC072000F03DFC08B1FFF7A6FCBE
:10739000A1883748FFF7A0FF002821D0BDE838407A
:1073A000FFF79CBC0B790A8801B032A1BDE83040E0
:1073B00002F067BF0023A0881A4685217FDFEBE734
:1073C00031F8040B75DFE7E736A102F04FFF00202C
:1073D0000090A08869468FDF002801D0FFF77EFC6F
:1073E00038BD35A102F042FFA088132176DFD3E734
:1073F00028E20200B0E10200436F6E6E65637469BB
:107400006F6E20526571756573742074696D656463
:10741000206F75742E00000047415454205365724C
:107420007665722054696D656F75742E00000000DA
:107430005265636965766564206164766572746916
:107440007365207265706F72742E000044697363F7
:107450006F6E6E65637465642E20636F6E6E5F6819
:10746000616E646C653A203078257800BC34002069
:107470002C2A0020446973636F6E6E6563746564C3
:107480002E20636F6E6E5F68616E646C653A2030AB
:107490007825782C20726561736F6E3A20307825DC
:1074A000780000005048592075706461746520723E
:1074B0006571756573742E004741545420436C699F
:1074C000656E742054696D656F75742E0000000040
:1074D00010B51A4C0188606810290ED011292BD1E3
:1074E000401E606028D1FFF746FB002824D02168A9
:1074F000002921D0BDE810400847D0B90021012261
:10750000084600F05DFB08B107280FD107220221D1
:10751000012000F055FB08B1072807D10422022101
:10752000002000F04DFB20B1072802D0216801B1F6
:1075300088476068401C606010BD000098300020E3
:1075400070B506461A481B4A0D46801AC0080978CD
:10755000032202EB004459B1012922D0022926D18D
:10756000204615A102F082FEBDE8704005F054B936
:10757000204615A102F07AFE698805F10E02304618
:1075800000F044F808B1FFF7A9FB304600F066F9B7
:1075900008B1FFF7A3FB2046BDE870400FA102F041
:1075A00065BEA989A868BDE8704000F08DB970BDBE
:1075B00028E20200B0E10200446973636F6E6E65F9
:1075C000637465642E000000446973636F766572AE
:1075D0007920636F6D706C6574652E00436F6E6EFD
:1075E000656374656420746F2064657669636520E3
:1075F00077697468204E6F726469632055415254F4
:1076000020536572766963652E00000050B1418099
:107610002AB15388C380138883809288028140698D
:1076200001F048BE0E20704730B5144B0D460400E3
:107630000FCB85B08DE80F001ED0EDB1A868D8B192
:107640002146684662DF002814D120788DF81200A8
:107650000120ADF810004FF6FF7060802868E060F0
:10766000686820610020A0802081A868606104A86B
:10767000FFF7D2FD05B030BD0E20FBE76CD3020052
:1076800030B5024685B008002DD0002A2BD04188A5
:107690004FF6FF74A14226D09388994223D11588D2
:1076A000112D22D0392D1ED1818800291BD053895C
:1076B0008B4218D1C168002915D001218DF8001026
:1076C00002F110010291D189ADF80C10C26869462F
:1076D00090470C480C49401AC008042101EB0040B7
:1076E0000AA102F0C3FD05B030BD8B42FBD1C168D9
:1076F0000029F8D002218DF800104480C268694644
:107700009047F0E7D0E10200B0E10200436C696508
:107710006E742073656E64696E6720646174612E97
:107720000000000030B585B00C46054614216846BF
:10773000FEF7B7FE207804F10E01002830D1A088B2
:1077400001282DD1A0792A78904229D1002217E072
:1077500002EBC20031F81030022B02D0032B0ED105
:1077600005E001EB40000089ADF8120007E001EBF5
:1077700040000389ADF80E304089ADF81000521C6E
:10778000207A9042E4D8E868002809D06088ADF8F3
:10779000020000208DF80000EA68694628469047FC
:1077A00005B030BD70B588B015460E46040012D045
:1077B00020216846FEF775FE19481A49401AC0088C
:1077C000022101EB0040F42D07D917A102F04EFD74
:1077D000072008B070BD0E20FBE76288A2F57F434A
:1077E000FF3B18D0154ACDE9022401208DF8000096
:1077F0002289ADF812208DF81010ADF81650002235
:10780000ADF8142006968DF811006288694660690B
:1078100001F0ACFDDDE70AA102F028FD0820D8E761
:10782000D0E10200B0E10200436F6E74656E742017
:10783000746F6F206C6F6E672E00000089880200E5
:10784000436F6E6E656374696F6E2068616E646C01
:107850006520696E76616C69642E000010B58AB08F
:1078600058B34188A1F57F42FF3A28D0C18831B38F
:10787000044620216846FEF714FE01218DF82010F1
:1078800000208DF821000F4ACDE902248DF8001068
:10789000E288ADF812200222ADF81620ADF81400EF
:1078A0008DF8101008A88DF81110069062886946AE
:1078B000606901F05BFD0AB010BD0E20FBE70820F7
:1078C000F9E70000898802002DE9F0410F460646DD
:1078D00019481A49401AC408042000EB0440054620
:1078E00017A102F0C3FC28463A46314602F068FC74
:1078F0000025012000EB04480FE0705DFFF71EFB40
:10790000040009D0112CF8D040462A4610A102F0FC
:10791000B1FC2046FFF7E2F96D1CBD42EDD3F01932
:1079200010F8010C0D2804D10A20FFF707FB1128DD
:10793000FAD0BDE8F081000028E20200B0E10200C8
:10794000526563656976696E6720646174612E00B3
:107950006170705F756172745F70757420666169C3
:107960006C656420666F7220696E6465782030787B
:10797000253034782E0000000149085C7047000073
:1079800090D202000649095C4FF0A040D0F81005E3
:10799000C84010F0010000D0012080F001007047C5
:1079A00090D202002DE9FC410646C0074FF00005C9
:1079B0000ED0104F00240122385D0095002311469F
:1079C000019502F05BF9641C042CF4D300F046F836
:1079D000B0070DD5074E0024361D0022305D03236D
:1079E00000951146019502F049F9641C042CF4D36A
:1079F000BDE8FC818CD2020007490B5C4FF0A0412E
:107A0000D1F804250120984020EA0203C1F8083586
:107A10001040C1F80C0570478CD202000249085C86
:107A2000012102F0D0B900008CD202000249085CAA
:107A3000002102F0C8B900008CD202000649095C9E
:107A40004FF0A040D0F80405C84010F0010000D06D
:107A5000012080F0010070478CD2020010B5002494
:107A60002046FFF7DBFF641C042CF9D310BD10B5D2
:107A700000242046FFF7DAFF641C042CF9D310BD64
:107A800010B50246064B4FF0FF3000215C5C94427B
:107A900001D1084610BD491C0429F7D310BD0000D0
:107AA00090D2020070B50C4E0C004FF00005306013
:107AB0000BD0012000F06AF808B1022004E0002099
:107AC00000F064F800B10B202070706810B9FFF767
:107AD00052F80546284670BD9830002010B50020A9
:107AE00000F0CAF908B1062806D1012000F0C4F957
:107AF00008B1062800D1002010BD00002DE9F04794
:107B00000D468146FFF7BCFF0446042836D2DFF855
:107B100074801B481C4EA8F10C0725B3012D0ED014
:107B2000022D2BD104EB440030444578002D25D0A4
:107B3000B968002922D02846BDE8F047084704EB81
:107B40004401755C0E44717849B10E4A4FF480418E
:107B5000093A8068FFF73AF908B987F80390B178D5
:107B600008F80410E2E78068FFF75AF904EB4401D3
:107B7000314418F804008D78A842D7D0BDE8F087CA
:107B800094D2020034300020B0360020042801D204
:107B9000FFF7F8BE00207047042804D00A280CD153
:107BA000002002F025BD05481321408876DF082813
:107BB00003D0002801D0FFF791B87047BC340020F3
:107BC00070B50023042810D20D4D00EB4004012AAB
:107BD00002D101290CD00022094E00EB40003044B4
:107BE00061B1012906D0022906D00723184670BDCD
:107BF0000E30C2B22A55F9E74270F7E78270F5E716
:107C0000B0360020044A014600201279D20702D083
:107C1000084600F04DB870472830002070B5064681
:107C20001E480024C0E90161B00720D500250122CB
:107C300011462846FFF7C4FF6D1C0446042D02D2EE
:107C4000002CF4D013E094B940F2333204211448EC
:107C5000FEF7C2FF04000AD1FEF7ACFF040006D114
:107C60000F48104A0021001FFFF772F80446F00782
:107C700012D00120FFF796FE74B909480A4A002184
:107C80000C38FFF765F8040006D10548074A0121C2
:107C90000838FFF75DF80446204670BD2830002004
:107CA000A0D20200857F0200158D0200AD6B02009C
:107CB0002DE9F05F6E4C054600266078B34618B19A
:107CC00084F801B001F00EF86A4F4FF47A694FF46E
:107CD000C87A4FF00108182D69D2DFE805F00C13BF
:107CE00013384754696E727B727BC58484848484A4
:107CF000B3B6B9BCC5C500F0F5FF3868FFF790F81A
:107D000006465CE00020FFF799FE00284FF00000D7
:107D100008D0FFF783FE022D02D14FF4E16008E0A6
:107D2000484606E0FFF782FE022D01D1C82000E0A0
:107D30005046410CC0034FF47A72801841F10001A3
:107D4000257052000023FEF74FFB01462AE0002079
:107D5000FFF774FE00284FF0000004D0FFF75EFE2E
:107D60004FF44870E5E7FFF761FEDFE70020FFF71B
:107D700065FE00284FF0000002D0FFF74FFECFE76E
:107D8000FFF754FED4E70020FFF758FE00284FF01D
:107D9000000002D0FFF742FE01E0FFF747FE25702A
:107DA00040F6CD4100223868FFF710F8064646E05D
:107DB0000020FFF721FE257008E0002051E025702B
:107DC0003DE084F801800120FFF716FE002240F21A
:107DD0006661E8E784F801800120FFF70DFE0022CC
:107DE0004FF40051DFE77868FFF71AF80646D5F13F
:107DF000110000D02EB10220FFF710FE84F802B06F
:107E00001DE0012816D980B2C8214843C117C90313
:107E100041EA5041C0034FF47A72801841F10001E9
:107E200052000023FEF7E0FA014600227868FEF7D0
:107E3000CDFF06460220FFF7F9FD84F802803046A8
:107E4000BDE8F09F00F04EFFB9E700F04BFFB4E74C
:107E500000F048FF04E000F045FF0020FFF7E6FDDA
:107E60000120FFF7E3FDAAE7FFF701FEA7E7000007
:107E70002830002094D20200012105F0D1B9000081
:107E80002DE9F84F0546861C00208DF8000091462C
:107E90000F464FF0010A6846FFF77AF81B4C04F2D0
:107EA0001C4860683860D4E90101194F401A3968EC
:107EB000081A0EE00121404601F0F3F800F042FFFD
:107EC0000146404601F0EDF8D4E90101401A396855
:107ED000081A401C8642EDD8B9F1000F03D00520E6
:107EE00065F3891002E0062065F39F5061683A68E7
:107EF000114004EB8101C8606068304460609DF807
:107F00000000FFF769F85046BDE8F88FDC39002023
:107F10006C31002070B50D4604460A2902D10D21AE
:107F2000FFF7F8FFA0682268411CA1601554D4E94E
:107F30000101814204D32046BDE8704001F0A5BD97
:107F400070BD0000044881684068814201D1012071
:107F50007047002070470000DC390020034630B530
:107F6000074800210478426806E000BF02EBC10028
:107F700005789D4203D0491CA142F7DB002030BDAB
:107F8000D030002000780221FFF7B8BD05494FF03E
:107F9000FF32082841F8202002D3084480F8482006
:107FA00070470000E8360020F0B54FF0FF3512B101
:107FB0000023082601E008230C260C4C05E000BF36
:107FC00054F823707F1C04D05B1CB342F8D32846BE
:107FD000F0BD26185DB286F8305044F82310002A10
:107FE000F5D1E11881F84800F1E70000E8360020FB
:107FF0000249084490F9300070470000E83600203C
:1080000030B589B00D46044620216846FEF749FA8E
:1080100094F8C602002300EB8001C1EB801094F8B5
:10802000C51204EB400041B1491EC9B201EBC101C8
:1080300000EB4101498A491C00E0C188008961F3D5
:108040000F0360F31F4303208DF800000548CDE9BE
:108050000204054804932A466946806801F086F9BF
:1080600009B030BDD9830200A030002070B5084CA3
:10807000050009D010342168002907D00868206065
:10808000496828468847F6E70834F4E770BD0000E1
:10809000D4360020054A012120B1012805D1917074
:1080A000FFF7E4BF51700020FAE77047D436002094
:1080B00010B5D0E90234D1E90220D11AA04101D390
:1080C000012010BD002010BD10B50246002013880D
:1080D00006E0546834F810408C4203D0401C80B253
:1080E0008342F6D810BD0000F0B50C4606461E4887
:1080F0001E4987B0401AC708042000EB07403346EA
:1081000022461BA102F0BDF8002004900590ADF8B6
:10811000104001900290ADF8124001AA04A9304627
:1081200090DF05001DD002F09DFD0346012000EB0D
:108130000740044632461A4902F0A3F8BDF804206D
:1081400012B9BDF8060028B1BDF80630204615A1C9
:1081500002F097F8BDF808201AB12046214902F034
:1081600089F807B02846F0BDB8E10200B0E102008E
:108170005570646174696E672064617461206C6518
:108180006E67746820746F202575206F6E20636F92
:108190006E6E656374696F6E20307825782E0000EE
:1081A00074D80200546865207265717565737465D2
:1081B000642054582F5258207061636B6574206C92
:1081C000656E67746820697320746F6F206C6F6EC2
:1081D000672062792025752F2575206F637465747B
:1081E000732E0000C0D8020001460148FFF79ABA7A
:1081F000BC3400202DE9F04389B00F460546914676
:1082000020216846FEF74DF995F8C60295F8C5425B
:1082100000EB8001C1EB801005EB400604EBC400CD
:1082200006EB40013279601C0A31904232D108AB32
:108230000022284600F024FD78B310E0401EA04242
:1082400001D1002004E004EBC40006EB40001C3028
:108250008046024608AB284600F012FD90B100208F
:10826000387004208DF8000008984A46CDE9035084
:108270000C4802900C486946806801F077F809B014
:10828000BDE8F08395F8C5024146401C641C85F8A2
:10829000C502E4B23079A042D0D801203870002065
:1082A000EDE70000D9830200A030002070B5002463
:1082B0000F4D10E0686800EBC406307802F0FCFD5A
:1082C0007178012901D0012100E00021414030787E
:1082D00000F046FA641C28788442EBDBD5E90401FF
:1082E000084303D0BDE8704004F0C4BC70BD00007A
:1082F000D030002030B59FB00C4605467C21684642
:10830000FEF7CFF8ADF8024003208DF800000448D6
:1083100001954168002901D0684688471FB030BDEB
:10832000A03000202DE9F041044690F8C6028846AE
:1083300000EB8001C1EB801004EB4006174630468D
:1083400003F0B8FF050042D0D4F8CC0206283ED294
:1083500004EBC0107622A0F8D272D4F8CC023146D9
:1083600004EBC01000F53570FEF782F80026B8F176
:10837000000F06D0D4F8CC0204EBC01080F8D06215
:1083800006E0D4F8CC12022004EBC11181F8D0022F
:10839000D4F8CC0204EBC010C0F84C53D4F8CC0293
:1083A0000C4D401CC4F8CC02E96888420FD1274626
:1083B000002407E007EBC41101F53470D1F84C1329
:1083C0008847641CE8688442F4D3C7F8CC62BDE8EF
:1083D000F0810000A0300020F0B515469FB00022CB
:1083E00081F8C822074691F8C6020C4600EB8002CD
:1083F000C2EB801001EB400003F05CFF060009D0E7
:108400007C2208496846FEF733F8ADF8025068460A
:108410000197B0471FB029462046BDE8F040FFF75E
:1084200069BF0000C0D20200F0B50D4689B0044615
:108430004FF4BA61FEF735F820216846FEF731F8AF
:108440001B4E2946B06800F035FF00282DD1A4F856
:10845000CA52C4F8CC0284F8C70284F8C60284F871
:10846000C502144815492B4600682060124822882E
:10847000401AC008042101EB0040114901F001FF3E
:10848000022001278DF80000ADF810702068CDF8AB
:1084900012000C48CDE902042A466946B06800F093
:1084A00065FF002801D184F8C87209B0F0BD000052
:1084B000A0300020BC360020B0E10200B0E1020094
:1084C000E4D70200D983020010B50021024800F071
:1084D000F3FD80F3100010BDF83D00204FF4803212
:1084E0008A400168C1F848230068C0F80823704733
:1084F0004FF4A07202EB810189B200F0A1B92DE91D
:10850000F04105460E464FF4A07000EB860081B2A4
:1085100028684FF48034B440984622F07F47C0F872
:1085200008432868C0F84843286802F04CF92868D6
:1085300000EB8600C0F840752868C0F84443B8F1E5
:10854000000F02D02868C0F80443BDE8F08100683D
:10855000D0F804057047000070B54379234C44F807
:1085600023204279231D03EBC202224C1579204AB5
:10857000121BD4082DB10825022000EB04401EA1D7
:1085800030E005680A88C5F8082590F90420897844
:10859000002A4FEA411104DB02F1E02282F80014C4
:1085A00005E002F00F0202F1E02282F8141D90F9BA
:1085B00004100122002909DB01F01F0502FA05F56C
:1085C0004909890001F1E021C1F8005141790025F4
:1085D00003EBC1010A71417943F83100032000EB3C
:1085E00004400EA101F042FE284670BD4831002033
:1085F00010E20200B0E1020052544320696E73742D
:10860000616E636520616C726561647920696E6971
:108610007469616C697A65642E0000005254433AB3
:1086200020696E697469616C697A65642E00000066
:1086300090F90400002809DB00F01F02012191409D
:108640004009800000F1E020C0F8001270470A469F
:10865000022100F07BB84FF4827100F0F1B800689D
:1086600001210160704700680121416070472DE9D8
:10867000F05F07460C464FF4A07000EB84001FFA31
:1086800080FA38684FF48036A6409B4622F07F453A
:10869000C0F848633868C0F808633868D0F80485C3
:1086A00000EB8402D2F84095C2F840855146386804
:1086B00002F089F8A9EB080020F07F40012806D1DC
:1086C000102002F03BFB5146386802F07CF8386815
:1086D000D0F80485C0F84463A5EB080121F07F4180
:1086E0003868012900EB840010D0C0F84055386884
:1086F000D0F804156FF07F4C6A1A521E22F07F42A8
:10870000ACEB0B03934217D362B118E06D1CC0F8B9
:108710004055102002F012FB3868D0F8040540459F
:108720000AD10CE000EB84006D1CC0F8405538689D
:10873000D0F80405884202D00D20BDE8F09F012248
:108740003146384600F002F80020F6E70368C3F827
:108750004413002A02D00068C0F8041370470000D8
:108760002DE9F84F0E463449804601EB5001C00711
:10877000097801D00F0901E001F00F074FF000095F
:10878000424601204946FDF760FEDFF8B0A00446EE
:108790000D46052F4ED2DFE807F003161B282C00EC
:1087A000002E47D00121404604F058F98DF8009082
:1087B0006846FEF7EDFB5046D0E904120C43154322
:1087C000CAE9044532E00EB1022114E0002112E0B2
:1087D0004EB10321404604F041F94046BDE8F84F50
:1087E000012104F00DBD012105E0002E22D104215C
:1087F00001E02EB103214046BDE8F84F04F02EB948
:108800000021404604F02AF90021404604F0F8FC1B
:108810008DF800906846FEF7BBFB5046E243D0E976
:1088200004341A4024EA0501CAE904219DF8000035
:10883000FEF7D2FBBDE8F88F94370020D03000203F
:1088400010B5006842581AB101F0BDFF012010BDFB
:10885000002010BD826883881A4003689A5C0A7001
:108860008168491C81607047C26883881A40036828
:108870009954C168491CC160704710B50446C0B224
:10888000FEF75CFB204610BD70B505460C46094856
:108890000949401AC008042101EB004007A101F07A
:1088A000E9FC2169002903D02846BDE8704008474B
:1088B00070BD0000D0E10200B0E10200412047415C
:1088C000545420436C69656E74206572726F722017
:1088D000686173206F63637572726564206F6E20C8
:1088E000636F6E6E5F68616E646C653A2030582508
:1088F0005800000070B508880D46A0F52061773952
:1089000016D10C480C49401AC108032000EB014461
:108910000AA1204601F0AAFCA88810A1C01E82B2BC
:108920000D48134602802046BDE8704001F0A9BC06
:1089300070BD000028E20200B0E102004154542062
:108940004D54552065786368616E676520636F6D6F
:10895000706C657465642E00282A0020426C6520C6
:108960004E5553206D61782064617461206C656E92
:108970006774682073657420746F203078255828D8
:108980002564290010B50949094800F00CFC08B11C
:10899000FEF7A4F9F721064800F0F9FB002803D000
:1089A000BDE81040FEF79AB910BD0000F58802003E
:1089B000D434002070B50C4601F11005C98A102985
:1089C00001D9092070BD01F06EFD606088B1EA88B0
:1089D0000023A96801F0CDFD074808496268401AE4
:1089E000C008042101EB004005A101F043FC002078
:1089F00070BD042070BD0000C0E10200B0E10200C3
:108A0000506F696E74657220746F20616C6C6F6357
:108A100061746564206D656D6F727920626C6F633F
:108A20006B3A2025702E000070B50C4601F1100540
:108A300089690988102901D9092070BD891C01F0B4
:108A400032FD6060C0B100230222A96801F091FDEF
:108A5000A868E96802230288606801F08AFD074877
:108A600007496268401AC008042101EB004005A1D3
:108A700001F000FC002070BD042070BDC0E10200C8
:108A8000B0E10200506F696E74657220746F2061EE
:108A90006C6C6F6361746564206D656D6F727920B5
:108AA000626C6F636B3A2025702E000010B50B4886
:108AB000FFF74DFD094A083AD2E90434C018D2E95B
:108AC000063244F10001C31A71EB020204D24FF0E6
:108AD0008072801841F1000110BD000010310020AB
:108AE00010B5C0B2FFF73AFA0446007802F0E4F994
:108AF00001466078012801D0012000E0002090EAC2
:108B0000010F08D00449D1E90401084303D1BDE8AD
:108B1000104004F0AFB810BDD03000202DE9FC5F4C
:108B20000E008346DDE90C47C6F1000098469246E8
:108B3000814600D40846012503E000BF90FBFAF00F
:108B40006D1C5045FADAA84500D9454624B1002EDF
:108B500001DB780700D5641EB80702D5B8F1000F15
:108B60000AD0F80708D13CB1A54205D220215846C9
:108B7000641EFFF7CFF9F6E7002E02DA4E462D21EC
:108B800002E0780703D52B215846FFF7C3F907F019
:108B9000030002280BD1B8F1000F08D13CB1A54267
:108BA00005D230215846641EFFF7B4F9F6E7CDE947
:108BB0000047434652463146584604F0C7FABDE8DE
:108BC000FC9F000070B50D46044600684FF48871A4
:108BD00002F068F84FF49071206802F063F84FF4E7
:108BE0009271206802F05EF84FF4A271206802F0E2
:108BF00059F84FF4AC71206802F054F8206812491B
:108C0000C0F804132068690740F30730090E0028F4
:108C100004DB00F1E02080F8001405E000F00F0014
:108C200000F1E02080F8141D206840F30730002890
:108C300009DB00F01F02012191404009800000F192
:108C4000E020C0F8001170BD100342000246002071
:108C50001268530713D502F00300012802D002283E
:108C60000CD105E0C2F383100B68801C184404E0AB
:108C70000223086803EB92521044086001207047F9
:108C800010B509892AB1D088491C814218D1002029
:108C900010BD90F8C62202EB8204C4EB821200EBF6
:108CA000420212899142F2D0491C198090F8C612F2
:108CB00001EB8102C2EB811100EB4100008902E06F
:108CC0001980D088401E5880012010BD007DC0F35F
:108CD000C100012803D0032801D0002070470120E3
:108CE000704700000A4810B5807860B1002401E0A8
:108CF000022C06D02046FEF791FE641C042CF7D30C
:108D000010BD0324F6E7BDE81040FEF7A7BE000043
:108D10002830002003480179C90702D00078FEF707
:108D2000C7BF704728300020F721018017214180FC
:108D3000002101714171FB2181711B21C1717047BB
:108D4000704700002DE9FF410026244800F0A6F9F5
:108D50002248001F074600F0A1F9214C2149A068D4
:108D600000900D6800E000986946284004EB800000
:108D70000C30FFF76BFF0028F5D101AA009901EA3A
:108D8000050304EB8303491CDB6842F82030401CD8
:108D900000910228F2D3019800F0030001280BD0C3
:108DA000022810D10198032101EB90500099BDF8E1
:108DB0000A6001EB900005E00198BDF80A60C0F37D
:108DC000831008440090384600F065F908B1009817
:108DD000A06004B03046BDE8F0810000F43D002002
:108DE000DC3900206C3100208CB04FF48041002031
:108DF00001F0BEFA08B1FDF771FF01F0B9F83C4887
:108E00003C49401AC108032000EB014004463AA146
:108E100001F02CFAFDF7ACFF08B1FDF75FFF182257
:108E20003E4905A8FDF724FB3D4801904FF48070B2
:108E30003C490490CDE9020107233B4A01A905A85A
:108E4000FEF72AF808B1FDF749FF38490120FEF77F
:108E5000E5FE08B1FDF742FF02A90020FEF722FE61
:108E600008B1FDF73BFF334D3148CDE90105002640
:108E700001A8FEF7F1F908B1FDF730FF01F082FB20
:108E800008B1FDF72BFF01F00FFE08B1FDF726FF3B
:108E900002A90120029601F0A7FC08B1FDF71EFF10
:108EA00002A801F039FD08B1FDF718FFFFF76AFDD0
:108EB000214801902148CDE9020501A92048FEF78B
:108EC000B3FB08B1FDF70AFF03F07AFC1DA0FDF724
:108ED00017FE204608A101F0C9F903F09DFC00BF70
:108EE00001F054F80028FBD101F060FBF8E7000026
:108EF00028E20200B0E10200424C452055415254A4
:108F00002063656E7472616C206578616D706C654C
:108F100020737461727465642E00000074D20200C4
:108F2000BC320020BC330020E1CC0200997B02005F
:108F3000E9810200FC2F00204175020081B402008B
:108F4000BC340020424C4520554152542063656E8C
:108F50007472616C206578616D706C6520737461EA
:108F6000727465642E0D0A002DE9F047C5881E1D38
:108F7000B6FBF5F78946B6FBF5F1044605FB176C21
:108F8000407916686843DDF820A0F718001F874273
:108F900000D9C61A166001E02468491E0029FBD1D9
:108FA000A5EB0C078846B74216D818E004EB0C0076
:108FB000001D09EB0803BAF1000F3A4602D0014642
:108FC000184600E01946FDF753FA2468F61B4FF0E7
:108FD000000CB844B54201D9374600E02F46002EB8
:108FE000E4D1BDE8F087000030B5024651B101F090
:108FF000D3F90021074C08E034F821301568AB4262
:1090000002D11160002030BD491C8142F4D30520FB
:1090100030BD00000000000010B531B1B2FBF3F428
:1090200003FB14241CB1092010BD0E2010BD0160EB
:109030000021416081608281C381084610BD70B506
:109040000C460546FDF7E8F8002802D0218828687C
:10905000084470BD10B50A8849888A4203D1FDF7DB
:109060001DF9012010BD002010BD70B50C4605464D
:10907000FDF7F7F8002802D061882868084470BD21
:1090800010B50A8849888A4203D1FDF7E1F801202A
:1090900010BD002010BD002100F009B8012100F032
:1090A00010B808B56A46FDF74EF9009808BD08B536
:1090B0006A46FDF72EF908BD08B56A46FDF710F9B6
:1090C00008BD08B56A46FDF717F9009808BD08B550
:1090D0006A46FDF745F9009808BD38B504460025F5
:1090E0008DF800506846FDF753FF216862680868F4
:1090F00090420ED9401E08600178238AE26801FB85
:109100000325227A2168101AC0B20A79824200D25D
:1091100008719DF80000FDF75FFF284638BD38B59F
:10912000054600208DF800000C466846FDF730FF2C
:10913000E868298A201AB0FBF1F12A681068431CFC
:10914000136001709DF80000FDF746FF38BD10B5B3
:1091500030B1017A42680368891AC9B21A6006E020
:109160000E2010BD03681A68541C1C601170491E43
:10917000C9B2F7D2006800210171084610BDC208CB
:1091800000F007030120895C98400840704728B12F
:10919000A1F11702E12A03D3072070470E20704780
:1091A00041800020704710B560B10161F72120F8BF
:1091B000021B20F8021BFB2100F8021BFFF7B4FD85
:1091C000002010BD0E2010BD70B585880C46002D06
:1091D0004FD1018824291FD006DC102909D011297C
:1091E0000CD0232921D11CE03A290BD055291CD1C0
:1091F0000DE00146204602F0F9F916E0A01DFFF748
:1092000093FD12E00146204602F062FC0DE00146AB
:10921000204602F0B7FB08E00146204602F06AFA59
:1092200003E00146204602F0EFFAA07A002820D0A1
:10923000E1882846A5DF0F490F4A0126891ACD0883
:1092400058B1112815D001F00DFD024606EB05407E
:10925000BDE8704009A101F00DB80023A372E672C9
:109260000420E28800EB0540BDE87040104901F0A1
:1092700008B870BDB8E10200B0E1020073645F623B
:109280006C655F67617474635F65786368616E675E
:10929000655F6D74755F72657175657374282920DB
:1092A00072657475726E65642025732E000000006F
:1092B0002CD802002DE9F041884604004FF000054B
:1092C00019D002F08BFF41462046FEF7FDFE2188B3
:1092D00081422AD119481A490427401AC00807EBCD
:1092E0000040424617A100F0C5FF002005464FF69A
:1092F000FF76218809E00E20BDE8F081626832F82F
:109300001020B24206D1401C80B28142F6D82069BA
:1093100001F016F9002022880BE0636833F8103062
:10932000B34204D1626822F810802846E4E7401C6A
:1093300080B28242F1D83846DEE70000C0E1020088
:10934000B0E102005265676973746572696E6720E7
:10935000636F6E6E656374696F6E2068616E646CB6
:10936000653A203078253034580000002DE9F04768
:109370000C4605462D482E499246401AC108042045
:1093800000EB01404FF0000806462AA100F06EFFF6
:10939000002D48D0002C46D0284602F01FFF514631
:1093A0002846FEF791FE2178062902D229888142BB
:1093B00002D10720BDE8F087A96800EB800701EB28
:1093C000870001F07AF930B15146204602F0DCFF07
:1093D00008B14046EEE72178DFF87C9059F821206B
:1093E0002AB12869F8B1214690470028E2D1A8683F
:1093F000214600EB870001F07FF95FEA00080BD0FF
:10940000217859F8210038B1606801F07CF83046C5
:1094100012A1626800F02EFFA868514600EB870099
:1094200002F096FDD5E70E20C4E70000C0E102007F
:10943000B0E10200416464696E67206974656D2063
:10944000746F20746865207265717565737420711E
:10945000756575650000000054D30200506F696E99
:1094600074657220746F206672656564206D656D29
:109470006F727920626C6F636B3A2025702E00004A
:10948000F8B505000C4620D0002C1ED028881128E5
:1094900006D0A0F130011F2902D950381F2814D856
:1094A000AE8820463146FEF70FFEADF80000218859
:1094B00081420AD02988112908D0A16800EB8000D8
:1094C00001EB8000314602F043FDF8BD62684FF6C3
:1094D000FF7122F810106946E06801F00DF9F8BD3F
:1094E0002DE9F041044600F1140600F10A07857CDD
:1094F000007A86B001F10208002825D08BDF142104
:109500006846FCF7CEFF2B463A46314640468CDF94
:1095100005460F480F49401AC108042000EB0146D8
:109520000DA1304600F0A2FE05208DF80000304667
:109530002A460CA1019500F09DFE002D04D0616A21
:10954000002901D06846884706B0BDE8F0810000D8
:10955000C8E10200B0E10200436F6E6E656374699A
:109560006E670000436F6E6E656374696F6E207383
:1095700074617475733A2025640000004FF4C8715B
:10958000018206214181182181810021C18170471A
:10959000017DA022C2825022028321F01801002204
:1095A000428341F0040101750121417570470000BB
:1095B0002DE9F04128B122B1032904D00720BDE8EC
:1095C000F0810E20FBE7034610F8045F04260DB17E
:1095D0003046F4E70021B2F800700C4633F821C0A1
:1095E000BC4501D12046EAE7491C11F0FF01F5D046
:1095F00003EB85016D1C057010680860054806497D
:109600001288401AC00806EB004004A100F032FEA8
:10961000E8E70000C8E10200B0E1020041646465CF
:10962000642066696C746572206F6E2055554944DC
:109630002025780018B100214171084670470E209E
:10964000704710B50B46040002D0980702D009E01D
:109650000E2010BD580705D4D80603D4180701D42E
:10966000072010BD2046FFF7E5FF580701D5012070
:109670006071A271002010BD70B50D46040010D0BD
:109680000026266066606262EDB128792072287B30
:10969000A074296839B10E2204F11400FCF7E8FE29
:1096A00004E00E2070BD2046FFF772FFA86830B1BD
:1096B0000168C4F80A104068C4F80E0009E02046AA
:1096C000FFF75CFF05E0FFF763FF2046FFF756FF5B
:1096D000267204F12800A0641F20A4F84C0000208A
:1096E00070BD2DE9F04F044689B00020884607463A
:1096F000069014216846FCF7D4FE04F1140004908F
:109700002046FFF7E3FA010004F14800059011D06C
:1097100002208DF80000CDF80480616A6846884711
:10972000002005998ADF41462046FFF7D9FE09B09F
:10973000BDE8F08FA079002107916179834621B3BC
:1097400001210691824694F804900026B8F81C0086
:109750003546089012E004EB8502D8F81800089905
:10976000FDF7FFFC28B1761CF6B2BAF1000F0DD060
:1097700002E0BAF1000F06D16D1CEDB24D45EAD3FF
:10978000BAF1000F02D04E4501D009E046B19DF874
:10979000080040F004008DF8080001207F1C0790AD
:1097A000CDF80480BBF1000F02D00698874203D0A9
:1097B000079830EA0B0007D000208DF800004146E2
:1097C0002046FFF78DFE02E003208DF80000616A5D
:1097D00009B168468847002005998ADFA7E700009D
:1097E000F0B50A46014601F108030C1D098885B051
:1097F000104602F11405102927D01B2907D01D2976
:1098000036D105B01946BDE8F040FFF76ABF0646FD
:1098100014216846241DFCF744FE2078012827D136
:10982000144815490427401AC00807EB004013A14B
:1098300000F01CFD706A00281AD08DF800700495A5
:1098400020788DF80400716A10E0064614216846FD
:10985000FCF727FE06208DF80000201D01902088CF
:10986000ADF808000495716A002901D06846884760
:1098700005B0F0BDC8E10200B0E10200424C455F16
:109880004741505F5343414E5F54494D454F5554F6
:109890000000000030B585B0040025D014216846D2
:1098A000FCF7FFFD8BDF2046FFF710FA012528B1FA
:1098B000616A19B18DF800506846884704F1480183
:1098C00004F114008ADF04460C480D49401AC1080F
:1098D000082C0BD054B105EB0140224609A100F041
:1098E000C9FC204605B030BD0E20FBE7042000EB8C
:1098F00001400DA100F0BAFC0020F3E7C8E102002E
:10990000B0E1020073645F626C655F6761705F73F2
:1099100063616E5F73746172742072657475726EC8
:1099200065642030782578005363616E6E696E67D8
:109930000000000000F180400068002800D00120F5
:10994000704708B500F18040002101600068009078
:1099500008BD000070B50D4C0125207808B18526A2
:109960000EE00020A06060602061E060084801F027
:10997000BDF9064601F0E4F808B901F0A1F9257037
:1099800001F096F900B1A570304670BDD4360020C4
:109990009580020038B500258DF800506846FDF727
:1099A000F7FA084CE068401EE060E06828B901F072
:1099B0007FF910B901F0AAF9A5709DF80000FDF734
:1099C0000BFB38BDD4360020F0B5054604781548A9
:1099D00089B0164640F82420124A0869121DA2F1E7
:1099E000080742F82400487F385520226846FCF7D3
:1099F0003FFD04942878385C48B10EB10A4A00E073
:109A000000226946281D01F01FFC09B0F0BD0EB10F
:109A1000064A00E00022694605F10C0001F0C8FA90
:109A2000F3E70000B430002009D00200ADCE020000
:109A300030B40378054CE35C1BB130BC001D01F071
:109A400039BC30BC0C3001F01DBB0000B030002030
:109A500030B40378054CE35C1BB130BC001D01F051
:109A6000ABBC30BC0C3001F083BB0000B030002038
:109A70000FB408B50399002904D004AA00926A46DD
:109A800000F00FF801B05DF814FB10B582680446D1
:109A9000002A05D0D4E90403216898470020A0607B
:109AA00010BD2DE9FC4791460C00804676D014F895
:109AB000011B39B125290ED04046FEF72BFA20783C
:109AC0000028F4D198F80C00002867D04046BDE883
:109AD000FC47FFF7DABF0020012221782B291BD099
:109AE0002D2902D0302908D102E040F0010001E028
:109AF00040F00200641C002AEFD100252A290ED074
:109B00002178A1F130020A2A11D205EB850201EB7E
:109B10004205641C303DF1E740F00400EAE7D9F863
:109B200000100B1DC9F800300968641C0D44217831
:109B300000232E290BD114F8011FA1F130020A2AAB
:109B400005D203EB830201EB4203303BF3E76C29C0
:109B50000DD068290BD0692921D00BDC252918D01C
:109B6000582931D063290ED0642915D117E014F893
:109B7000011FECE7702969D0732932D075291BD0F9
:109B8000782909D120E0D9F80000011DC9F800109A
:109B900001784046FEF7BEF9641C90E76CE0D9F806
:109BA00000100A1DC9F800200968CDE900500A22FA
:109BB0004046FEF7B3FFEFE7D9F800100A1DC9F8D9
:109BC000002009680A2206E0D9F800100A1DC9F829
:109BD000002009681022CDE90050404603F0B6FA93
:109BE000DAE7D9F8001000270A1DC9F800200E682E
:109BF000C00705D112E04046761C7F1CFEF78AF9AB
:109C000031780029F7D104E0202140466D1EFEF78F
:109C100081F9BD42C0D9002DF6D1BDE74EB1304625
:109C2000FCF74AFC074604E0202140466D1EFEF783
:109C300071F9BD4206D9002DF6D103E04046761CED
:109C4000FEF768F931780029F8D1A5E7D9F80000C6
:109C5000011DC9F80010056830214046FEF75AF989
:109C600078214046FEF756F908200021CDE9000191
:109C7000034610222946B0E7BDE8FC8770B541EAEB
:109C80004201DDE904564FF0A04441EA830141EA74
:109C9000052104EB800041EA0641C0F8001770BDC1
:109CA00070B541EA4201DDE904564FF0A04441EAB3
:109CB000830141EA052104EB800041EA0641C0F836
:109CC000001770BD70B541EA4201DDE904564FF05E
:109CD000A04441EA830141EA052104EB800041EA06
:109CE0000641C0F8001770BD70B541EA4201DDE9D8
:109CF00004564FF0A04441EA830141EA052104EBF8
:109D0000800041EA0641C0F8001770BD1CB5002272
:109D10000B46009211460192FFF7D4FF1CBD1CB503
:109D200000220B46009211460192FFF7DDFF1CBD99
:109D30001CB5002100910B46012201911146FFF74D
:109D4000C1FF1CBD1CB5002100910B4601220191F1
:109D50001146FFF7C9FF1CBD4FF0A04202EB800087
:109D6000D0F8002722F44032C0F80027D0F80027AE
:109D700042EA0141C0F800177047000038B5094BAE
:109D800044181B6800936B4608E000BF53F820108E
:109D9000D1F8205520C2C1F82055401C8442F5D886
:109DA00038BD00007CD3020042094FF0000100D111
:109DB000491E00F01F00012282400A4201D001200A
:109DC00070470020704701224FF0A043824011B13C
:109DD000C3F808257047C3F80C257047034908B538
:109DE0000844002101600068009008BD0060004048
:109DF00002494058012800D0002070470060004010
:109E000030B5154A01460020D2F8104423460AE036
:109E1000DB681D79854205D1401C0A28F6DB4FF02E
:109E2000FF3030BD1B68002BF2D1431CF9D0CB684A
:109E30001871D2F8103443B1DB68CC681B6823601A
:109E4000D2F81024D268116030BDC2F81014C9686D
:109E500000220A6030BD0000DC3900207047FCF7AA
:109E60001DBC704708B5034A00924023024A00F027
:109E700005F808BDF5C8020044380020F0B595B0DB
:109E80001C4615460E4608461A9F00F055FB182141
:109E900009A8FCF706FB0E97CDE909540023082218
:109EA00003A9304600F05DFB05980690BDF8100050
:109EB000ADF81C00BDF81200ADF81E0000208DF8B2
:109EC00021000399082501F00300012802D002288F
:109ED00016D02FE0C1F3C200C1F383178C0A8DF8AE
:109EE0002000BA002B460FA9304600F03AFB09A823
:109EF000009006AB3A460FA9204600F079FA19E027
:109F0000C1F3C2008C0D8DF82000082C01D2274629
:109F100000E008272B463A460FA9304600F021FB07
:109F20003D44E41B09AB06AA39460FA800F0C8F966
:109F3000002CEAD1304600F005FB15B0F0BD000062
:109F40000A4A012902EBC00007D0022907D00329E1
:109F500007D0042907D00020704702207047042052
:109F6000704700797047407970470000B0E1020007
:109F700010B5FFF774FF04210348FFF741FF0249C2
:109F80000120C968487110BDA0E102002DE9F04F21
:109F90008DB0FDF7D7FF18B100200DB0BDE8F08FF0
:109FA0007D4C4FF0000BC4F818B4BFF34F8F7B49C2
:109FB000A06802900D68D846284004EB80000BE0B2
:109FC000D4F8180470B961680298814201D8A16080
:109FD000E2E7284004EB80000C3002A9FEF736FED1
:109FE0000028EDD1002009AA029901EA050304EB3B
:109FF0008303491CDB6842F82030401C0291022890
:10A00000F2D3099800F00301022902D001294DD0B2
:10A01000A8E0810D50228946B2EB905F00D8502114
:10A020000E4666F39F50099008315D4800F03BFAF8
:10A03000070077D000F080FA4346082209A9384685
:10A0400000F097FA029908F1080A2940681A80007E
:10A05000001D864223D9504D0C3530B1C2B204EBFD
:10A060008101301A90460C3104E02946F2B20025F5
:10A0700090462846C6B25346384600F07AFA0AEBB4
:10A0800008032DB1324629464FEA070000F071FA65
:10A09000029909F1030001EB9000029039E004EB12
:10A0A00081015346324638460C31EFE7C0F3831145
:10A0B000062900D3062161F389100990C0F38310AB
:10A0C000801C8100364800F0EEF907004AD000F00D
:10A0D00033FA4346082209A9384600F04AFA08F143
:10A0E000080800260FE00298434600EA0501401CDC
:10A0F00004EB81010290042238460C3100F039FA59
:10A1000008F10408761C0998C0F38310B042EAD81D
:10A1100047B1D4F81054D4F8180478B1384600F098
:10A1200011FA34E01EE0E8684079012804D12A6879
:10A130002846394612689047E8680568002DF2D134
:10A14000384600F0FFF98DF800B06846FCF720FFB4
:10A15000D4F8180408B90298A0609DF80000FCF734
:10A160003BFF14E0D4F8104405E0216820468968DC
:10A170008847E0680468002CF7D10A480A49401A69
:10A18000C008022101EB004008A100F06FF8FDF7C4
:10A19000D9FE80F0010000E7DC3900206C3100209E
:10A1A0005CE2020028E20200B0E102004261636B5F
:10A1B000656E647320666C757368656400000000EA
:10A1C0002DE9F84F8146274FD01C15468A46800856
:10A1D000002269463E68FDF753FEDFF88C80B0B37D
:10A1E000009CA01C009039683040091A8F003F1D68
:10A1F000BD4208EB800002D82A46514608E03A46A4
:10A2000051460C30FCF734F91748EA1B0AEB0701FA
:10A210000C30FCF72DF94FEA1947FEF755F947EADC
:10A220000042601C304008EB8000344008EB8401A1
:10A23000C260C8684FF6C07269F3C500904365F309
:10A240009F5020F00300801C20F00400C86098F8A4
:10A25000000001E0FFF79AFE0028FBD1FEF770FD39
:10A26000BDE8F88F6C310020DC39002000231A464D
:10A2700002F00CBC08B5012300926A4602F006FC0D
:10A2800008BD1CB5CDE9002302236A4602F0FEFB9F
:10A290001CBD3EB5069C8DE81C0003236A4602F0F7
:10A2A000F5FB3EBDF0B587B00DF1300C9CE8F00039
:10A2B0008DE8FC0006236A4602F0E8FB07B0F0BD1B
:10A2C0002DE9F0470E4680461C469246082940D8A4
:10A2D00094F80C90002020731946104601F0E0FD20
:10A2E0000025B54206D218F805201BA12046FFF72D
:10A2F000BFFB03E01AA12046FFF7BAFB6D1C082D37
:10A30000EFD318A12046FFF7B3FB0025B54212D2C8
:10A3100018F805707E2F08D8FCF7A6F80068C05D15
:10A3200010F03E0F01D03A4600E02E220EA120464A
:10A33000FFF79EFB03E00DA12046FFF799FB6D1C84
:10A34000082DE3D301222146504601F08BFD84F80D
:10A350000C90BDE8F0870000202530327800000026
:10A36000202020007C000000256300002000000069
:10A37000064910B500200870054800F0E1F80028F3
:10A3800003D1044800F011FA002010BDDC39002090
:10A390005CE2020068D5020002480349401AC00886
:10A3A0007047000048E20200B0E1020013B56846C1
:10A3B000FEF71AFE08B100201CBD0248009950F8B3
:10A3C00031001CBDB0E1020070B508480125D0F88D
:10A3D0001044057007E0E06845712168204649682F
:10A3E0008847E0680468002CF5D170BDDC39002096
:10A3F0002DE9FF4781460C9D00200C462F7B2873DA
:10A40000984616462946184601F04AFD072E42D2C4
:10A41000DFE806F004090F161F2A360049462846D1
:10A42000FFF726FB37E0494628462268FFF720FB66
:10A4300031E0D4E9002349462846FFF719FB2AE01A
:10A44000A0680090D4E9002349462846FFF710FB96
:10A4500021E0D4E90201CDE90001D4E90023494615
:10A460002846FFF705FB16E004F1080007C88DE851
:10A470000700D4E9002349462846FFF7F9FA0AE025
:10A4800004F108000FC88DE80F00D4E90023494605
:10A490002846FFF7EDFA00222946404601F0E2FC8B
:10A4A0002F73BDE8FF872DE9F041058A80462D1FF7
:10A4B0004819C01CB0FBF5F0C6B24046FEF70DFED1
:10A4C000041E19D00020207101206071E580002752
:10A4D0002546761EC4F800800BE04046FEF7FDFDE1
:10A4E00060B16179491C6171286005467F1CC0F824
:10A4F0000080B742F1D32046BDE8F081204600F04D
:10A5000002F80020F8E72DE9F041457901466B1E7D
:10A51000002201E00968521C9A42FBD30F680146F1
:10A52000002605E038460C68FEF7F9FD2146761C4A
:10A53000AE42F7D3BDE8F0810121001DFEF7B1BDA9
:10A54000FEF705BE10B504460121001DFEF7BFFD54
:10A5500010F0FF0F04D12046BDE81040FFF7D3BF35
:10A5600010BD1CB501920122009201AAFEF7FCFC6D
:10A570001CBD1CB501920022009201AAFEF7F4FC5A
:10A580001CBD0000064910B500204870091D086078
:10A59000BFF35F8F0349044800F0F6FA002010BDB6
:10A5A0005431002000D402003838002008B50020C3
:10A5B0008DF800006846FCF7EBFCF1EE100A20F085
:10A5C0009F00E1EE100ABFF35F8F08494020C1F8F9
:10A5D00080029DF80000FCF7FFFC00F0B1FA08B122
:10A5E00041DF08BD20BF40BF20BF08BD04E000E040
:10A5F00070B504460C480121FEF75EFDBFF35F8F86
:10A600000025002809D10120074E042C08D0311F55
:10A610004A781AB1BFF35F8F356070BD0C70487017
:10A6200002F0A0F9F6E70000583100202DE9F843C8
:10A630000446002790460E468DF800706846FCF7E9
:10A64000A7FC204600F039F838B105279DF8000036
:10A65000FCF7C2FC3846BDE8F88320680568B8F10D
:10A66000000F05D10168204600F03FF8216808601E
:10A67000E268012A0CD0022A0ED0042A11D06068A8
:10A68000082A13D005FB02013046FBF7F1FEDDE797
:10A690006068405D3070D9E7606830F81500308040
:10A6A000D4E7606850F825003060CFE700EBC501C3
:10A6B000D1E90001C6E90001C8E7016808684968F6
:10A6C000884201D1012070470020704701680A6864
:10A6D00049688068884201D9491C00E00021914204
:10A6E00001D101207047002070478068884201D95D
:10A6F000481C7047002070472DE9F84304464FF08E
:10A7000000080E468DF800806846FCF741FC2046A4
:10A71000FFF7DCFF07000AD0207C40B14FF00408AF
:10A720009DF80000FCF758FC4046BDE8F88320681F
:10A73000456841682046FFF7D8FF2168486037B177
:10A74000206801682046FFF7D0FF21680860E268B2
:10A75000012A14D0022A16D0042A19D0082A1CD0A3
:10A760006068314605FB0200FBF782FE204601F0DF
:10A7700029FD21688A688242D2D28860D0E7616868
:10A7800030784855F2E76168308821F81500EDE728
:10A790006168306841F82500E8E7D6E900016268A1
:10A7A00002EBC502C2E90001E0E782680021916086
:10A7B00082681161826851618268D16082685160EB
:10A7C00080680160704708B50022425040580090F0
:10A7D00008BD000020B103490968016000207047EE
:10A7E0000E207047ECD502002DE9FE4307460E46C9
:10A7F0000846FFF7EFFF00287CD100250095019562
:10A8000006208DF800704FF00108ADF804000295A5
:10A810008DF8028069462020326869DF3649374A60
:10A82000891AC908012202EB014430B100F01AFA7A
:10A83000024620463249FFF71DFD00958DF8015074
:10A840008DF80280019502958DF8038069464020BD
:10A85000326869DF30B100F005FA02462046294926
:10A86000FFF708FD00958DF80070F720ADF80200A5
:10A870000195029569462320326869DF30B100F006
:10A88000F1F9024620462049FFF7F4FC00950195B6
:10A8900002958DF8008069460120326869DF30B189
:10A8A00000F0E0F9024620461849FFF7E3FC4FF4B8
:10A8B000B0600090019502956946A120326869DF79
:10A8C00030B100F0CFF9024620461149FFF7D2FC23
:10A8D0000095019502958DF800506946A0203268D8
:10A8E00069DF30B100F0BEF9024620460949FFF7A2
:10A8F000C1FC0020BDE8FE8338E20200B0E10200A6
:10A90000D4DF02001CE0020068E0020034DF020035
:10A9100080DF0200E0DE02002DE9F0410546076815
:10A9200060DF804619491A482A68081AC608BA42E0
:10A9300019D9022000EB064416A12046FFF796FC29
:10A9400020463A461FA12B68FFF79BFC4FF0805032
:10A95000D0F80C012968800200F10050421A20460C
:10A9600025A1FFF787FCB8F100004FF001040AD0E1
:10A9700000F078F9024604EB06402AA1FFF77AFCC2
:10A980004046BDE8F0812F480470F9E738E2020044
:10A99000B0E10200496E73756666696369656E743D
:10A9A0002052414D20616C6C6F6361746564206658
:10A9B0006F722074686520536F66744465766963AE
:10A9C000652E00004368616E6765207468652052DB
:10A9D000414D207374617274206C6F636174696F90
:10A9E0006E2066726F6D203078257820746F20306D
:10A9F0007825782E000000004D6178696D756D2016
:10AA000052414D2073697A6520666F7220617070C3
:10AA10006C69636174696F6E206973203078257882
:10AA20002E00000073645F626C655F656E61626C2E
:10AA30006528292072657475726E65642025732EF1
:10AA400000000000C331002030B51548ADF5017D90
:10AA50000078002821D04FF4FA7500BFADF80052FD
:10AA600080A9684661DF38B1052816D00DF5017D53
:10AA7000BDE83040FCF732B96C460A497DA800F0C9
:10AA800083F806E0D0E90021204690477DA800F039
:10AA900092F87F980028E1D0F4E70DF5017D30BDF4
:10AAA000C3310020F0D502007CB5194C207808B1E4
:10AAB00008207CBD0120A070002001F0EDFE1128CF
:10AAC00019D0002001F000FF124800260068019014
:10AAD0008DF800606846FCF75BFA0F4901A810DFAB
:10AAE00005000AD0002020709DF80000FCF774FAE1
:10AAF0002DB128467CBD00207CBD0120F3E7A67067
:10AB0000667001F079FF012001F0DEFEF3E700003E
:10AB1000C031002084D50200596C02000EB50749EF
:10AB2000684600F031F805E0D0E900108847684633
:10AB300000F041F802980028F6D10EBDA0D5020021
:10AB40000148007870470000C03100201FB56846FA
:10AB50004BDF30B1052814D004B0BDE81040FCF73D
:10AB6000BDB8084901A800F00FF806E0D0E90021BF
:10AB70000098904701A800F01EF803980028E6D03E
:10AB8000F4E71FBD0CD60200016009684160AFF315
:10AB9000008010B5D0E900215368994201D100210D
:10ABA00004E0D1E90034A34202D01946816010BD0F
:10ABB00008314160F0E7816800290BD00268926893
:10ABC0000A44826041684B689A4203D1083141606F
:10ABD000FFF7DFBF704770B50D460646446804E0D6
:10ABE000B2682946904718B1246820680028F7D138
:10ABF00020682860256070BD406800687047416823
:10AC00000868002801D002680A60704702460020E8
:10AC1000526806E08B4203D108681060012070473B
:10AC20001A461368002BF5D1704700000C4A10B586
:10AC300002F594730EE0991AC91001EBD171491015
:10AC400002EBC1010C68844201D90B4602E005D237
:10AC500001F108029A42EED3002010BD486810BDF1
:10AC600020D4020000B5FFF7E1FF002800D1014821
:10AC700000BD00000CD402004058002800D0012084
:10AC8000704708B5002242504058009008BDD0F8E7
:10AC90000403084000D0012070474058002800D02D
:10ACA0000120704708B5002242504058009008BD6E
:10ACB00002480068002800D00120704700040140CD
:10ACC00008480068012110F0010F06D14FF0E02084
:10ACD000C02280F800248430C16703490120086045
:10ACE0007047000000E100E01805004006490246F8
:10ACF00000200B790BB1852070470A6001220A7190
:10AD000000224A7170470000BC300020022010B5BC
:10AD10004107C1F808034FF48270FEF712FE05499F
:10AD20000120086004480168C1F300410029FAD1FC
:10AD300010BD00000C00004018040040002802D0A4
:10AD40000149800108477047D1D302002DE9F04145
:10AD50000E46054601F00CF80028284619D0FDF7EC
:10AD600047F9083801F076F8032802D001280ED000
:10AD700007E04FF0A040D0F81005E84010F0010FB8
:10AD800005D003212846BDE8F041FEF7E5BF0221CA
:10AD9000F8E700F0F9FF002822D02846FDF728F94F
:10ADA00004464FF4807000EB84000E4F81B207EB35
:10ADB0008400D0F8102542F00102C0F810250846A2
:10ADC000FFF70CF8002E0BD02846FDF711F90649C5
:10ADD00051F82000002803D00120A040C7F8040348
:10ADE000BDE8F08100600040E83600202DE9FC411C
:10ADF000DFF8B880044608EB0400002790F9300023
:10AE00001346C0170E46401C01D008274AE0B07810
:10AE10001946C0F340022046FDF7C6F80546401C1F
:10AE20003FD0B078410717D4C0070AD04FF0A040F8
:10AE300000EB8400D0F8001721F00201C0F80017E1
:10AE400007E000217378204600910A460191FEF741
:10AE500027FF204600F07EFFB078800718D5144801
:10AE6000317800EB8500D0F81025124B1A40C0F85D
:10AE700010254FF4F8524FF4403302EA042203EA5B
:10AE800001410A43D0F810150A43C0F8102509E023
:10AE900008EB0500327810F8481F41EA8211017072
:10AEA00000E004273846BDE8FC810000E8360020B9
:10AEB00000600040FFE0FCFF4FF0A041D1F810150A
:10AEC000C14011F0010000D00120704770B5194D4C
:10AED00095F8580008B1082070BD0024661E204671
:10AEE000FEF762FF10B1281980F83060641CE4B2EC
:10AEF000202CF4D300242046FDF748F8641CE4B26B
:10AF00000C2CF8D300200D4968650B4CC02081F84B
:10AF1000000401264020891FC1F800014FF4BE70D3
:10AF2000FEF75CFFA004C4F8040385F85860002015
:10AF300070BD0000E83600200060004006E000E040
:10AF4000034890F85800002800D001207047000006
:10AF5000E83600200121B1EB507F01D1012070477C
:10AF60000020704738B50D4600F0E6FF040014D00D
:10AF700000208DF800006846FCF70AF8207928B117
:10AF80009DF80000FCF728F8112038BD012025604D
:10AF900020719DF80000FCF71FF8002038BD00006C
:10AFA0000149024801F09ABF4437002000200040C8
:10AFB0002DE9F0410546007916460F4600EB4001A9
:10AFC0002D4A01EBC00102EB810494F82A1011B163
:10AFD0000820BDE8F081294951F820102868FFF7C2
:10AFE000C1FF08B11120F4E739462846FCF70EF8F6
:10AFF00066603869206030004FF001062FD03F7F37
:10B000004FF48E712868FFF73CFE4FF4A271286858
:10B01000FFF737FE28681A49C0F8041328684FEA7A
:10B02000471140F30730002804DB00F1E02080F8EE
:10B03000001405E000F00F0000F1E02080F8141D7E
:10B04000286840F30730002809DB00F01F0106FAEA
:10B0500001F14009800000F1E020C0F800112868EB
:10B060000421C0F800150020A061E06184F82900E7
:10B0700044F8140FA675ACE74437002080D30200D3
:10B08000800002002DE9F05F054600794FF401765B
:10B0900000EB400303EBC000344B03EB80040020C3
:10B0A000636813B12B68C3F80863A3694FF0000904
:10B0B0006BB1E06938B1606810B12868C0F804630A
:10B0C0001120BDE8F09FE2610120216105E0C4F894
:10B0D0002490A261E160C4F81C9094F82910014307
:10B0E00002D1284601F00BFB60680028286803D0D5
:10B0F000C0F804630020E4E74FF4A2763146FFF77E
:10B10000C0FDB2464FF4927B59462868FFF7B4FD64
:10B1100006464FF484712868FFF7AEFD804651461D
:10B120002868FFF7A9FD074648EA07003043EBD03F
:10B1300056EA070007D12146286801F0B1FAA16953
:10B14000606A8142E0D8C4F818900EB10320B8E7D5
:10B150000FB10F20B5E794F82910012000292968C4
:10B1600001D00860C6E74860C4E70000443700200B
:10B170002DE9F05F054600790B4600EB400101EB3D
:10B18000C000244901EB8004284600F045F810B1C6
:10B190001120BDE8F09F62614FF00009C4F82090D3
:10B1A000A36084F828904FF48E784E464146286874
:10B1B000FFF767FD28684FF0010AC0F808A0214694
:10B1C000286801F063FD606808BBD5F800B06769C6
:10B1D0000FE000BF94F8280008B10F2615E04146A3
:10B1E0005846FFF749FD0028F4D02146584601F0A3
:10B1F0004DFD206AB842F2D3574641462868FFF712
:10B200003BFD0028F9D02868C760C4F81490304688
:10B21000BFE7000044370020007900EB400101EB5C
:10B22000C000044901EB80004069002800D00120E3
:10B2300070470000443700200149024801F0FCBE7D
:10B2400070370020002000402DE9F04105461646E9
:10B2500000790F46154A00EBC00102EB810494F817
:10B26000201011B10820BDE8F081114951F82010DB
:10B270002868FFF777FE08B11120F4E73946284621
:10B28000FBF708FF6660386920601EB1397F2846E9
:10B29000FDF798FC28680821C0F800150020A0617F
:10B2A000E0616061012184F82010DCE77037002044
:10B2B00084D302002DE9F05F044600790E4600EBCE
:10B2C000C001DFF8F0A017460AEB81053046FFF712
:10B2D00041FEB0B168684FF000084FF4047910B136
:10B2E0002168C1F80893A8694FF0000B80B1E869A4
:10B2F00048B1686810B12068C0F804931120BDE817
:10B30000F09F1020FBE7EF614FF001082E6102E093
:10B31000EE60C5E9067B00254FF488712068FFF7D1
:10B32000C1FC4FF4A2712068FFF7BCFC2068C0F894
:10B330003465C0F838752068B8F1000F12D0D0F825
:10B34000001241F02001C0F800122079D04600EB35
:10B35000C0010AEB8100406838B12068C0F804934E
:10B360002846CCE701210160EFE74FF4887A4FF4DB
:10B37000A27951462068FFF790FC074649462068AD
:10B38000FFF78BFC06464FF492712068FFF785FCAF
:10B39000014647EA06000843EBD0227902EBC203DC
:10B3A00008EB8302C2F818B001B10325002ED7D0F4
:10B3B0000F25D5E7703700202DE9F04704460E46EB
:10B3C0000079274900EBC00001EB800517463046A5
:10B3D000FFF7C0FD30B1204600F044F820B1112045
:10B3E000BDE8F0871020FBE76F61AE604FF4907707
:10B3F0004FF0000839462068FFF754FC4FF4AC7654
:10B4000031462068FFF74EFC2068AA686969C0F8D9
:10B410004425C0F8481520684FF00109C0F808908D
:10B420006868D0B9BA4651462068FFF736FC07462F
:10B4300031462068FFF731FC0743F4D010B14FF0DC
:10B440000F0808E02068C0F80C9031462068FFF72C
:10B4500024FC0028F9D0002068614046C0E70000C5
:10B46000703700200079054900EBC00001EB800037
:10B470004069002800D0012070470000703700208C
:10B48000FBF72CBC03490860034801680029FCD085
:10B490007047000004E5014000E401402DE9F84F49
:10B4A00005460C460888B5F8CA1288427BD195F843
:10B4B000C602628800EB8001C1EB801005EB4006FC
:10B4C000454946484FF0000B081A4FEAD009EABB3D
:10B4D0003079E288A71D8246D1B250FA82F2062A5C
:10B4E00002D8084430710DE006203071022101EBD2
:10B4F0000940328880463A49FEF7BCFE4046394949
:10B50000FEF7B4FE50460022D8461BE000EBC00117
:10B5100002EB820307EB430306EB4101D3F802C0C1
:10B52000C1F80AC0D3F806C0C1F80EC05B894B82CF
:10B53000A1F81480A1F81680A1F81880401CA1F889
:10B540001A80521C31798142E0D800E01FE095F862
:10B55000C61200EBC00001EB8102C2EB811105EBCA
:10B56000410136F810000989884210D23079062846
:10B570000DD085F8C50221882846FCF741FD00283A
:10B5800011D022882946BDE8F84FFCF725BF85F881
:10B59000C5B2228869462846FCF72CFE28B12288CD
:10B5A0002946FCF719FFBDE8F88F9DF80000002838
:10B5B000F9D0042101EB0940238832880A49FEF7BB
:10B5C00060FE228801212846FCF7ACFE218828462F
:10B5D00000F060FBE7E70000B0E10200B0E102002C
:10B5E000A0D60200E8D602008CD702002DE9F04177
:10B5F0008D88027900EBC5042273C97BA41D012943
:10B6000002D0022904D101E0008800E040882080B7
:10B610002288608882421BD9164817492B46401A57
:10B620004FEAD008042101EB0840064613A1FEF7BB
:10B6300028FE21882846A5DF012790B1112812D0C5
:10B64000FFF710FB024607EB08401CA1FEF712FEB5
:10B65000A179E07981420BD92846BDE8F041FCF799
:10B6600043BD6771F4E7277130462A462049EDE76C
:10B67000BDE8F081B8E10200B0E1020052657175E9
:10B68000657374696E6720746F207570646174658A
:10B6900020415454204D545520746F20257520624C
:10B6A00079746573206F6E20636F6E6E6563746965
:10B6B0006F6E20307825782E0000000073645F6282
:10B6C0006C655F67617474635F65786368616E67FA
:10B6D000655F6D74755F7265717565737428292077
:10B6E00072657475726E65642025732E000000000B
:10B6F00018D90200F0B58DB006462C226846091D07
:10B70000FAF7B6FEBDF804001F49C2B21D48BDF8E5
:10B710000050401AC108042006EBC50700EB0144A5
:10B720007A732B4619A12046FEF7ABFDBDF8062023
:10B73000204622A1FEF79EFDBDF80420204624A14C
:10B74000FEF798FDBDF80A20204626A1FEF792FDDF
:10B75000BDF80820204627A1FEF78CFD306900289F
:10B760000DD02849D1E90401CDE90B01ADF82E50E7
:10B77000787B8DF8300032690BA9304690470DB0C8
:10B78000F0BD0000B8E10200B0E102004461746164
:10B79000206C656E677468207570646174656420E0
:10B7A000746F202575206F6E20636F6E6E656374F5
:10B7B000696F6E2030782530782E00006D61785FDB
:10B7C00072785F6F63746574733A202575000000AA
:10B7D0006D61785F74785F6F63746574733A202568
:10B7E000750000006D61785F72785F74696D653A0D
:10B7F000202575006D61785F74785F74696D653AB6
:10B80000202575003CD3020070B58A880C1D00EB22
:10B81000C2060D7A09480A492B46401AC00804217D
:10B8200001EB004007A1FEF72CFD317BA94200D3BC
:10B8300029462088BDE87040FCF756BCB8E10200FC
:10B84000B0E1020050656572206F6E20636F6E6E0E
:10B85000656374696F6E2030782578207265717524
:10B86000657374656420612064617461206C656E29
:10B87000677468206F662025752062797465732E61
:10B8800000000000F8B505460C460888B5F8CA1255
:10B89000884255D195F8C602A21D00EB8001C1EB8C
:10B8A000801005EB400695F8C50200EBC00006EBE2
:10B8B000400160880A3138B329E000BF00EB400343
:10B8C00002EB43039F88B7F5245F0CD06FF4245C30
:10B8D00017EB0C070AD0012F02D0072F0BD108E07D
:10B8E0005B884B8107E05B888B8104E05B88CB81C0
:10B8F00001E05B880B824B892BB18B891BB1CB8913
:10B900000BB10B8A1BB9401C13888342D6D8002088
:10B910008DF8000095F8C5023179401C884203D1AA
:10B9200001208DF8000010E085F8C50222886946E4
:10B930002846FCF75FFC20B122882946FCF74CFD25
:10B94000F8BD9DF800000028FAD00B480B49238869
:10B95000401AC008042101EB004032880849FEF774
:10B9600090FC228801212846FCF7DCFC218828462F
:10B9700000F090F9F8BD0000B0E10200B0E1020073
:10B980008CD702002DE9FC478E880746CD8800EB56
:10B99000C604214821492B46401A4FEAD009042108
:10B9A00001EB0940804632461DA1A41DFEF769FC4B
:10B9B000172D00D217252088A84200D8054665809B
:10B9C00000202071009623886288404623A1FEF75C
:10B9D00060FC21883046B5DF40B1FFF743F90246ED
:10B9E000012101EB09402DA1FEF744FC60790028FC
:10B9F00010D1386900280DD03449D1E90201CDE9D0
:10BA00000001ADF802606088ADF804003A6969464B
:10BA100038469047BDE8FC87B8E10200B0E102007B
:10BA200050656572206F6E20636F6E6E656374691A
:10BA30006F6E203078257820726571756573746536
:10BA40006420616E20415454204D5455206F66206F
:10BA500025752062797465732E000000557064614D
:10BA600074696E6720415454204D545520746F20E2
:10BA70002575206279746573202864657369726521
:10BA8000643A20257529206F6E20636F6E6E6563A2
:10BA900074696F6E20307825782E000073645F62C1
:10BAA0006C655F67617474735F65786368616E6706
:10BAB000655F6D74755F7265706C79282920726599
:10BAC0007475726E65642025732E00003CD30200ED
:10BAD0007CB58D88064600EBC5044A8934F8060F0C
